{
  "contractName": "Subscription",
  "abi": [
    {
      "inputs": [],
      "payable": false,
      "stateMutability": "nonpayable",
      "type": "constructor"
    },
    {
      "anonymous": false,
      "inputs": [
        {
          "indexed": true,
          "internalType": "address",
          "name": "sender",
          "type": "address"
        },
        {
          "indexed": false,
          "internalType": "uint256",
          "name": "_subscriptionIndex",
          "type": "uint256"
        },
        {
          "indexed": false,
          "internalType": "uint256",
          "name": "_value",
          "type": "uint256"
        }
      ],
      "name": "SubscriptionEvent",
      "type": "event"
    },
    {
      "constant": true,
      "inputs": [],
      "name": "owner",
      "outputs": [
        {
          "internalType": "address payable",
          "name": "",
          "type": "address"
        }
      ],
      "payable": false,
      "stateMutability": "view",
      "type": "function"
    },
    {
      "constant": true,
      "inputs": [
        {
          "internalType": "address",
          "name": "",
          "type": "address"
        },
        {
          "internalType": "uint256",
          "name": "",
          "type": "uint256"
        }
      ],
      "name": "subscriptionByOwner",
      "outputs": [
        {
          "internalType": "uint256",
          "name": "",
          "type": "uint256"
        }
      ],
      "payable": false,
      "stateMutability": "view",
      "type": "function"
    },
    {
      "constant": true,
      "inputs": [],
      "name": "subscriptionIndex",
      "outputs": [
        {
          "internalType": "uint256",
          "name": "",
          "type": "uint256"
        }
      ],
      "payable": false,
      "stateMutability": "view",
      "type": "function"
    },
    {
      "constant": true,
      "inputs": [
        {
          "internalType": "uint256",
          "name": "",
          "type": "uint256"
        }
      ],
      "name": "subscriptions",
      "outputs": [
        {
          "internalType": "uint256",
          "name": "index",
          "type": "uint256"
        },
        {
          "internalType": "address",
          "name": "creator",
          "type": "address"
        },
        {
          "internalType": "uint256",
          "name": "endDT",
          "type": "uint256"
        }
      ],
      "payable": false,
      "stateMutability": "view",
      "type": "function"
    },
    {
      "constant": false,
      "inputs": [],
      "name": "kill",
      "outputs": [],
      "payable": false,
      "stateMutability": "nonpayable",
      "type": "function"
    },
    {
      "constant": false,
      "inputs": [
        {
          "internalType": "uint256",
          "name": "_closing",
          "type": "uint256"
        }
      ],
      "name": "putSubscriptions",
      "outputs": [],
      "payable": true,
      "stateMutability": "payable",
      "type": "function"
    }
  ],
  "bytecode": "0x608060405234801561001057600080fd5b50336000806101000a81548173ffffffffffffffffffffffffffffffffffffffff021916908373ffffffffffffffffffffffffffffffffffffffff160217905550610677806100606000396000f3fe6080604052600436106100555760003560e01c80632d5bbf601461005a57806341c0e1b5146100e3578063812052e3146100fa5780638da5cb5b146101255780638fcf12fc1461017c578063c408b209146101aa575b600080fd5b34801561006657600080fd5b506100936004803603602081101561007d57600080fd5b8101908080359060200190929190505050610219565b604051808481526020018373ffffffffffffffffffffffffffffffffffffffff1673ffffffffffffffffffffffffffffffffffffffff168152602001828152602001935050505060405180910390f35b3480156100ef57600080fd5b506100f8610263565b005b34801561010657600080fd5b5061010f610342565b6040518082815260200191505060405180910390f35b34801561013157600080fd5b5061013a610348565b604051808273ffffffffffffffffffffffffffffffffffffffff1673ffffffffffffffffffffffffffffffffffffffff16815260200191505060405180910390f35b6101a86004803603602081101561019257600080fd5b810190808035906020019092919050505061036d565b005b3480156101b657600080fd5b50610203600480360360408110156101cd57600080fd5b81019080803573ffffffffffffffffffffffffffffffffffffffff169060200190929190803590602001909291905050506105ef565b6040518082815260200191505060405180910390f35b60026020528060005260406000206000915090508060000154908060010160009054906101000a900473ffffffffffffffffffffffffffffffffffffffff16908060020154905083565b6000809054906101000a900473ffffffffffffffffffffffffffffffffffffffff1673ffffffffffffffffffffffffffffffffffffffff163373ffffffffffffffffffffffffffffffffffffffff1614610308576040517f08c379a000000000000000000000000000000000000000000000000000000000815260040180806020018281038252602581526020018061061e6025913960400191505060405180910390fd5b6000809054906101000a900473ffffffffffffffffffffffffffffffffffffffff1673ffffffffffffffffffffffffffffffffffffffff16ff5b60015481565b6000809054906101000a900473ffffffffffffffffffffffffffffffffffffffff1681565b60008114156103e4576040517f08c379a000000000000000000000000000000000000000000000000000000000815260040180806020018281038252601e8152602001807f436c6f73696e672074696d652077696c6c206265206e6f6e2d7a65726f2e000081525060200191505060405180910390fd5b343373ffffffffffffffffffffffffffffffffffffffff16311015610471576040517f08c379a000000000000000000000000000000000000000000000000000000000815260040180806020018281038252601d8152602001807f496e73756666696369656e74206163636f756e742062616c616e63652e00000081525060200191505060405180910390fd5b600160008154809291906001019190505550604051806060016040528060015481526020013373ffffffffffffffffffffffffffffffffffffffff168152602001828152506002600060015481526020019081526020016000206000820151816000015560208201518160010160006101000a81548173ffffffffffffffffffffffffffffffffffffffff021916908373ffffffffffffffffffffffffffffffffffffffff16021790555060408201518160020155905050600360003373ffffffffffffffffffffffffffffffffffffffff1673ffffffffffffffffffffffffffffffffffffffff16815260200190815260200160002060015490806001815401808255809150509060018203906000526020600020016000909192909190915055503373ffffffffffffffffffffffffffffffffffffffff167f31946b06c41bd0b8965a27e8c2c24ebafe1acb74e5b762b3ffa11a50d85a6eb160015434604051808381526020018281526020019250505060405180910390a250565b6003602052816000526040600020818154811061060857fe5b9060005260206000200160009150915050548156fe4f6e6c7920746865206f776e65722063616e206b696c6c207468697320636f6e7472616374a265627a7a7231582000cf736d5dca8466f8d53fa1ca82975f42c837e6b37b8ac5c4fddac6b261428e64736f6c634300050c0032",
  "source": "pragma solidity ^0.5.0;\n\ncontract Subscription {\n\n    enum SubscriptionState { INACTIVE, ACTIVE }\n\n    struct subscriber {\n        uint256 index;\n        address creator;\n        uint256 endDT;\n    }\n\n    address payable public owner;\n    uint256 public subscriptionIndex;\n\n    mapping(uint256 => subscriber) public subscriptions;\n    mapping(address => uint256[]) public subscriptionByOwner;\n\n    // EVENT\n    event SubscriptionEvent(address indexed sender, uint256 _subscriptionIndex, uint _value);\n\n    constructor() public {\n        owner = msg.sender;\n    }\n\n    function kill() external {\n        require(msg.sender == owner, \"Only the owner can kill this contract\");\n\n        selfdestruct(owner);\n    }\n\n    function contractWithdraw() internal {\n        require(msg.sender == owner, \"Only the owner can withdraw.\");\n        require(address(this).balance > 0, \"Contract balance is zero.\");\n\n        owner.transfer(address(this).balance);\n    }\n\n    function putSubscriptions(uint256 _closing) public payable {\n        //require((now - subscriber[subscriptionIndex].endDT) > timeout, \"Timeout already.\");\n        require(_closing != 0, \"Closing time will be non-zero.\");\n        require(address(msg.sender).balance >= msg.value, \"Insufficient account balance.\");\n\n        subscriptionIndex++;\n        subscriptions[subscriptionIndex] = subscriber(subscriptionIndex, msg.sender, _closing);\n\n        subscriptionByOwner[msg.sender].push(subscriptionIndex);\n\n        emit SubscriptionEvent(msg.sender, subscriptionIndex, msg.value);\n    }\n\n}",
  "sourcePath": "C:/xampp/htdocs/BLOCKCHAIN/Subscription/contracts/Subscription.sol",
  "compiler": {
    "name": "solc",
    "version": "0.5.12+commit.7709ece9.Emscripten.clang"
  },
  "schemaVersion": "3.0.18",
  "updatedAt": "2019-11-11T13:50:32.218Z",
  "networkType": "ethereum",
  "devdoc": {
    "methods": {}
  },
  "userdoc": {
    "methods": {}
  }
}