{
  "contractName": "Subscription",
  "abi": [
    {
      "inputs": [],
      "payable": false,
      "stateMutability": "nonpayable",
      "type": "constructor"
    },
    {
      "anonymous": false,
      "inputs": [
        {
          "indexed": true,
          "internalType": "address",
          "name": "sender",
          "type": "address"
        },
        {
          "indexed": false,
          "internalType": "uint256",
          "name": "_subscriptionIndex",
          "type": "uint256"
        },
        {
          "indexed": false,
          "internalType": "uint256",
          "name": "_value",
          "type": "uint256"
        }
      ],
      "name": "SubscriptionEvent",
      "type": "event"
    },
    {
      "constant": true,
      "inputs": [],
      "name": "owner",
      "outputs": [
        {
          "internalType": "address payable",
          "name": "",
          "type": "address"
        }
      ],
      "payable": false,
      "stateMutability": "view",
      "type": "function"
    },
    {
      "constant": true,
      "inputs": [
        {
          "internalType": "address",
          "name": "",
          "type": "address"
        },
        {
          "internalType": "uint256",
          "name": "",
          "type": "uint256"
        }
      ],
      "name": "subscriptionByOwner",
      "outputs": [
        {
          "internalType": "uint256",
          "name": "",
          "type": "uint256"
        }
      ],
      "payable": false,
      "stateMutability": "view",
      "type": "function"
    },
    {
      "constant": true,
      "inputs": [],
      "name": "subscriptionIndex",
      "outputs": [
        {
          "internalType": "uint256",
          "name": "",
          "type": "uint256"
        }
      ],
      "payable": false,
      "stateMutability": "view",
      "type": "function"
    },
    {
      "constant": true,
      "inputs": [
        {
          "internalType": "uint256",
          "name": "",
          "type": "uint256"
        }
      ],
      "name": "subscriptions",
      "outputs": [
        {
          "internalType": "uint256",
          "name": "index",
          "type": "uint256"
        },
        {
          "internalType": "address",
          "name": "creator",
          "type": "address"
        },
        {
          "internalType": "uint256",
          "name": "endDT",
          "type": "uint256"
        },
        {
          "internalType": "string",
          "name": "dtOffset",
          "type": "string"
        }
      ],
      "payable": false,
      "stateMutability": "view",
      "type": "function"
    },
    {
      "constant": false,
      "inputs": [],
      "name": "kill",
      "outputs": [],
      "payable": false,
      "stateMutability": "nonpayable",
      "type": "function"
    },
    {
      "constant": false,
      "inputs": [
        {
          "internalType": "uint256",
          "name": "_closing",
          "type": "uint256"
        },
        {
          "internalType": "string",
          "name": "_dtOffset",
          "type": "string"
        }
      ],
      "name": "putSubscriptions",
      "outputs": [],
      "payable": true,
      "stateMutability": "payable",
      "type": "function"
    }
  ],
  "bytecode": "0x608060405234801561001057600080fd5b50336000806101000a81548173ffffffffffffffffffffffffffffffffffffffff021916908373ffffffffffffffffffffffffffffffffffffffff1602179055506108e1806100606000396000f3fe6080604052600436106100555760003560e01c80632d5bbf601461005a57806341c0e1b51461014f578063812052e3146101665780638da5cb5b14610191578063c408b209146101e8578063f767bd6614610257575b600080fd5b34801561006657600080fd5b506100936004803603602081101561007d57600080fd5b810190808035906020019092919050505061031c565b604051808581526020018473ffffffffffffffffffffffffffffffffffffffff1673ffffffffffffffffffffffffffffffffffffffff16815260200183815260200180602001828103825283818151815260200191508051906020019080838360005b838110156101115780820151818401526020810190506100f6565b50505050905090810190601f16801561013e5780820380516001836020036101000a031916815260200191505b509550505050505060405180910390f35b34801561015b57600080fd5b50610164610404565b005b34801561017257600080fd5b5061017b6104e3565b6040518082815260200191505060405180910390f35b34801561019d57600080fd5b506101a66104e9565b604051808273ffffffffffffffffffffffffffffffffffffffff1673ffffffffffffffffffffffffffffffffffffffff16815260200191505060405180910390f35b3480156101f457600080fd5b506102416004803603604081101561020b57600080fd5b81019080803573ffffffffffffffffffffffffffffffffffffffff1690602001909291908035906020019092919050505061050e565b6040518082815260200191505060405180910390f35b61031a6004803603604081101561026d57600080fd5b81019080803590602001909291908035906020019064010000000081111561029457600080fd5b8201836020820111156102a657600080fd5b803590602001918460018302840111640100000000831117156102c857600080fd5b91908080601f016020809104026020016040519081016040528093929190818152602001838380828437600081840152601f19601f82011690508083019250505050505050919291929050505061053c565b005b60026020528060005260406000206000915090508060000154908060010160009054906101000a900473ffffffffffffffffffffffffffffffffffffffff1690806002015490806003018054600181600116156101000203166002900480601f0160208091040260200160405190810160405280929190818152602001828054600181600116156101000203166002900480156103fa5780601f106103cf576101008083540402835291602001916103fa565b820191906000526020600020905b8154815290600101906020018083116103dd57829003601f168201915b5050505050905084565b6000809054906101000a900473ffffffffffffffffffffffffffffffffffffffff1673ffffffffffffffffffffffffffffffffffffffff163373ffffffffffffffffffffffffffffffffffffffff16146104a9576040517f08c379a00000000000000000000000000000000000000000000000000000000081526004018080602001828103825260258152602001806108886025913960400191505060405180910390fd5b6000809054906101000a900473ffffffffffffffffffffffffffffffffffffffff1673ffffffffffffffffffffffffffffffffffffffff16ff5b60015481565b6000809054906101000a900473ffffffffffffffffffffffffffffffffffffffff1681565b6003602052816000526040600020818154811061052757fe5b90600052602060002001600091509150505481565b60008214156105b3576040517f08c379a000000000000000000000000000000000000000000000000000000000815260040180806020018281038252601e8152602001807f436c6f73696e672074696d652077696c6c206265206e6f6e2d7a65726f2e000081525060200191505060405180910390fd5b343373ffffffffffffffffffffffffffffffffffffffff16311015610640576040517f08c379a000000000000000000000000000000000000000000000000000000000815260040180806020018281038252601d8152602001807f496e73756666696369656e74206163636f756e742062616c616e63652e00000081525060200191505060405180910390fd5b600160008154809291906001019190505550604051806080016040528060015481526020013373ffffffffffffffffffffffffffffffffffffffff168152602001838152602001828152506002600060015481526020019081526020016000206000820151816000015560208201518160010160006101000a81548173ffffffffffffffffffffffffffffffffffffffff021916908373ffffffffffffffffffffffffffffffffffffffff1602179055506040820151816002015560608201518160030190805190602001906107179291906107e2565b50905050600360003373ffffffffffffffffffffffffffffffffffffffff1673ffffffffffffffffffffffffffffffffffffffff16815260200190815260200160002060015490806001815401808255809150509060018203906000526020600020016000909192909190915055503373ffffffffffffffffffffffffffffffffffffffff167f31946b06c41bd0b8965a27e8c2c24ebafe1acb74e5b762b3ffa11a50d85a6eb160015434604051808381526020018281526020019250505060405180910390a25050565b828054600181600116156101000203166002900490600052602060002090601f016020900481019282601f1061082357805160ff1916838001178555610851565b82800160010185558215610851579182015b82811115610850578251825591602001919060010190610835565b5b50905061085e9190610862565b5090565b61088491905b80821115610880576000816000905550600101610868565b5090565b9056fe4f6e6c7920746865206f776e65722063616e206b696c6c207468697320636f6e7472616374a265627a7a723158205856c04895ec94212a678429c8516e98a6abf7f42704ee51199a6ab7195cd92064736f6c634300050c0032",
  "source": "pragma solidity ^0.5.0;\n\ncontract Subscription {\n\n    enum SubscriptionState { INACTIVE, ACTIVE }\n\n    struct subscriber {\n        uint256 index;\n        address creator;\n        uint256 endDT;\n        string dtOffset;\n    }\n\n    address payable public owner;\n    uint256 public subscriptionIndex;\n\n    mapping(uint256 => subscriber) public subscriptions;\n    mapping(address => uint256[]) public subscriptionByOwner;\n\n    // EVENT\n    event SubscriptionEvent(address indexed sender, uint256 _subscriptionIndex, uint _value);\n\n    constructor() public {\n        owner = msg.sender;\n    }\n\n    function kill() external {\n        require(msg.sender == owner, \"Only the owner can kill this contract\");\n\n        selfdestruct(owner);\n    }\n\n    function contractWithdraw() internal {\n        require(msg.sender == owner, \"Only the owner can withdraw.\");\n        require(address(this).balance > 0, \"Contract balance is zero.\");\n\n        owner.transfer(address(this).balance);\n    }\n\n    function putSubscriptions(uint256 _closing, string memory _dtOffset) public payable {\n        require(_closing != 0, \"Closing time will be non-zero.\");\n        require(address(msg.sender).balance >= msg.value, \"Insufficient account balance.\");\n\n        subscriptionIndex++;\n        subscriptions[subscriptionIndex] = subscriber(subscriptionIndex, msg.sender, _closing, _dtOffset);\n\n        subscriptionByOwner[msg.sender].push(subscriptionIndex);\n\n        emit SubscriptionEvent(msg.sender, subscriptionIndex, msg.value);\n    }\n\n}",
  "sourcePath": "C:/xampp/htdocs/BLOCKCHAIN/Subscription/contracts/Subscription.sol",
  "compiler": {
    "name": "solc",
    "version": "0.5.12+commit.7709ece9.Emscripten.clang"
  },
  "schemaVersion": "3.0.18",
  "updatedAt": "2019-11-11T16:35:11.159Z",
  "networkType": "ethereum",
  "devdoc": {
    "methods": {}
  },
  "userdoc": {
    "methods": {}
  }
}