{
  "contractName": "Subscription",
  "abi": [
    {
      "constant": true,
      "inputs": [
        {
          "name": "",
          "type": "uint256"
        }
      ],
      "name": "subscriptions",
      "outputs": [
        {
          "name": "index",
          "type": "uint256"
        },
        {
          "name": "creator",
          "type": "address"
        },
        {
          "name": "endDT",
          "type": "uint256"
        }
      ],
      "payable": false,
      "stateMutability": "view",
      "type": "function"
    },
    {
      "constant": true,
      "inputs": [
        {
          "name": "",
          "type": "uint256"
        },
        {
          "name": "",
          "type": "uint256"
        }
      ],
      "name": "subscriptionByActive",
      "outputs": [
        {
          "name": "",
          "type": "uint256"
        }
      ],
      "payable": false,
      "stateMutability": "view",
      "type": "function"
    },
    {
      "constant": true,
      "inputs": [],
      "name": "subscriptionIndex",
      "outputs": [
        {
          "name": "",
          "type": "uint256"
        }
      ],
      "payable": false,
      "stateMutability": "view",
      "type": "function"
    },
    {
      "constant": true,
      "inputs": [
        {
          "name": "",
          "type": "address"
        },
        {
          "name": "",
          "type": "uint256"
        }
      ],
      "name": "subscriptionByOwner",
      "outputs": [
        {
          "name": "",
          "type": "uint256"
        }
      ],
      "payable": false,
      "stateMutability": "view",
      "type": "function"
    },
    {
      "inputs": [],
      "payable": false,
      "stateMutability": "nonpayable",
      "type": "constructor"
    },
    {
      "anonymous": false,
      "inputs": [
        {
          "indexed": true,
          "name": "sender",
          "type": "address"
        },
        {
          "indexed": false,
          "name": "_subscriptionIndex",
          "type": "uint256"
        },
        {
          "indexed": false,
          "name": "_value",
          "type": "uint256"
        }
      ],
      "name": "SubscriptionEvent",
      "type": "event"
    },
    {
      "constant": false,
      "inputs": [
        {
          "name": "_closing",
          "type": "uint256"
        }
      ],
      "name": "putSubscriptions",
      "outputs": [],
      "payable": true,
      "stateMutability": "payable",
      "type": "function"
    }
  ],
  "bytecode": "0x608060405234801561001057600080fd5b50610497806100206000396000f3fe60806040526004361061004a5760003560e01c80632d5bbf601461004f5780633be3ccd7146100d8578063812052e3146101315780638fcf12fc1461015c578063c408b2091461018a575b600080fd5b34801561005b57600080fd5b506100886004803603602081101561007257600080fd5b81019080803590602001909291905050506101f9565b604051808481526020018373ffffffffffffffffffffffffffffffffffffffff1673ffffffffffffffffffffffffffffffffffffffff168152602001828152602001935050505060405180910390f35b3480156100e457600080fd5b5061011b600480360360408110156100fb57600080fd5b810190808035906020019092919080359060200190929190505050610243565b6040518082815260200191505060405180910390f35b34801561013d57600080fd5b50610146610271565b6040518082815260200191505060405180910390f35b6101886004803603602081101561017257600080fd5b8101908080359060200190929190505050610277565b005b34801561019657600080fd5b506101e3600480360360408110156101ad57600080fd5b81019080803573ffffffffffffffffffffffffffffffffffffffff1690602001909291908035906020019092919050505061043d565b6040518082815260200191505060405180910390f35b60016020528060005260406000206000915090508060000154908060010160009054906101000a900473ffffffffffffffffffffffffffffffffffffffff16908060020154905083565b6002602052816000526040600020818154811061025c57fe5b90600052602060002001600091509150505481565b60005481565b6000808154809291906001019190505550604051806060016040528060005481526020013373ffffffffffffffffffffffffffffffffffffffff1681526020018281525060016000805481526020019081526020016000206000820151816000015560208201518160010160006101000a81548173ffffffffffffffffffffffffffffffffffffffff021916908373ffffffffffffffffffffffffffffffffffffffff160217905550604082015181600201559050506002600060018081111561033d57fe5b81526020019081526020016000206000549080600181540180825580915050906001820390600052602060002001600090919290919091505550600360003373ffffffffffffffffffffffffffffffffffffffff1673ffffffffffffffffffffffffffffffffffffffff16815260200190815260200160002060005490806001815401808255809150509060018203906000526020600020016000909192909190915055503373ffffffffffffffffffffffffffffffffffffffff167f31946b06c41bd0b8965a27e8c2c24ebafe1acb74e5b762b3ffa11a50d85a6eb160005434604051808381526020018281526020019250505060405180910390a250565b6003602052816000526040600020818154811061045657fe5b9060005260206000200160009150915050548156fea165627a7a72305820a5bdcace9f857aef44d903747e21b5d1662de079e414d8589321c21b741b960b0029",
  "source": "pragma solidity ^0.5.0;\n\nimport \"./SafeMath.sol\";\n\ncontract Subscription {\n\n    enum SubscriptionState { INACTIVE, ACTIVE }\n\n    struct subscriber {\n        uint256 index;\n        address creator;\n        uint256 endDT;\n    }\n\n    uint256 public subscriptionIndex;\n\n    mapping(uint256 => subscriber) public subscriptions;\n    mapping(uint => uint256[]) public subscriptionByActive;\n    mapping(address => uint256[]) public subscriptionByOwner;\n\n    // EVENT\n    event SubscriptionEvent(address indexed sender, uint256 _subscriptionIndex, uint _value);\n\n    constructor() public {\n    }\n\n    function putSubscriptions(uint256 _closing) public payable {\n        subscriptionIndex++;\n        subscriptions[subscriptionIndex] = subscriber(subscriptionIndex, msg.sender, _closing);\n\n        subscriptionByActive[uint(SubscriptionState.ACTIVE)].push(subscriptionIndex);\n\n        subscriptionByOwner[msg.sender].push(subscriptionIndex);\n\n        emit SubscriptionEvent(msg.sender, subscriptionIndex, msg.value);\n    }\n\n}",
  "sourcePath": "C:/xampp/htdocs/BLOCKCHAIN/Subscription/contracts/Subscription.sol",
  "compiler": {
    "name": "solc",
    "version": "0.5.8+commit.23d335f2.Emscripten.clang"
  },
  "schemaVersion": "3.0.16",
  "updatedAt": "2019-11-06T13:13:25.058Z",
  "devdoc": {
    "methods": {}
  },
  "userdoc": {
    "methods": {}
  }
}